:020000040000FA
:020000000528D1
:06000A00831603178801B4
:1000100089018316031307108710071188018312C3
:100020000313870188010130A0002D30A1000F309B
:10003000A2000A30A3000030A7000630A900572014
:100040002F2020282008A4002108A5002208A600AF
:10005000A60B2828A50B2628A40B2428080022205C
:100060002808033A03193D282808023A03194428AE
:100070002808013A03194B28542829080021880030
:1000800028080C218700522827080021880028080A
:100090000C218700522823080021880028080C2101
:1000A00087005228A80308000330A8000800033086
:1000B000A80028080C2187000130AB000730AA00F7
:1000C0002B0888000330A000F830A1008530A20082
:1000D00022200310AB0DAA0B60287F3088000A3065
:1000E000A000F830A1008530A20022200A30A00034
:1000F000F830A1008530A200222088010A30A0003B
:10010000F830A1008530A20022200A30A000F8308B
:10011000A1008530A2002220A8032808031D592829
:020120000800D5
:1002000082073F3406345B344F3466346D347D34BA
:1002100007347F3467346F3482070034013402348A
:020220000434A4
:02400E00F12F90
:00000001FF
